:020000040800F2
:10000000A8060020450100083520000889150008D1
:10001000312000080D0D0008C73000080000000066
:10002000000000000000000000000000252700087C
:10003000031200080000000019250008112800081C
:100040005F0100085F0100085F0100085F01000810
:100050005F0100085F0100085F0100085F01000800
:100060005F0100085F0100085F010008110D000832
:100070005F0100085F0100085F0100085F010008E0
:100080005F0100085F0100085F0100085F010008D0
:100090005F0100085F0100085F0100085F010008C0
:1000A0005F0100085F0100085F0100085F010008B0
:1000B000532900085F0100085F0100085F01000884
:1000C0005F0100085F0100085F0100085F01000890
:1000D0005F010008CD2C00085F0100085F010008E7
:1000E000111300085F0100085F0100085F010008AC
:1000F0005F0100085F0100085F0100085F01000860
:100100005F0100085F0100085F0100085F0100084F
:100110005F0100085F0100085F0100085F0100083F
:100120005F0100085F0100085F0100085F0100082F
:10013000DFF80CD000F044FC00480047CD43000835
:10014000A80600200648804706480047FEE7FEE76D
:10015000FEE7FEE7FEE7FEE7FEE7FEE7FEE7FEE777
:10016000992800083101000840EA01039B0703D0E9
:1001700009E008C9121F08C0042AFAD203E011F8E6
:10018000013B00F8013B521EF9D27047D2B201E0A8
:1001900000F8012B491EFBD270470022F6E710B58C
:1001A00013460A4604461946FFF7F0FF204610BDE5
:1001B00030B505462A460B4612F8010B13F8014BE1
:1001C00008B1A042F8D01CB1002802D06D1CF1E7A4
:1001D000284630BDF0B480EA0102D40F4200B2EBF1
:1001E000410F02D20246084611464A0042D0C30DD2
:1001F000DDB2C1F3C752AD1A202D35DAC1F31601B5
:1002000041F4000204B15242C5F1200602FA06F19F
:100210002A411044B3EBD05F23D0C4B1012DA0EB31
:10022000C35009DCF0BC4FF0004202EAC352DBB21B
:1002300000F5000000F0D0BA400000F1807000EB43
:10024000C350A0F1807040EAD170490009E049082C
:1002500041EAC071A0EBC35000F50000400800EB7C
:10026000C350F0BC00F0AFBA6142012202EB410181
:10027000001BF6E7F0BC704781F00041AAE780F070
:100280000040A7E780EA010210B502F000434000F9
:1002900022D04A001FD0010E01EB1261C0F35600BC
:1002A000C2F3560240F4000042F40002A0FB022018
:1002B00000047F39140400D0401C50EA124001D4DD
:1002C0004000491EC2B20C0604EBD010401C40088E
:1002D000802A02D003E0002010BD20F00100002998
:1002E00000DA0020184310BD30B480EA010202F0A9
:1002F000004530F0004221F0004013D090B1C30D12
:10030000D40DC2F31601C0F31600E41A41F4000143
:1003100040F400027D34914201D3641C00E04900A6
:10032000002C02DA30BC002070474FF4000000239C
:10033000914201D3891A034340084FEA4101F7D1A2
:1003400051B1914202D14FF0004105E002D24FF08D
:10035000010101E06FF0010103EBC450284430BCFF
:1003600000F031BA2DE9FE4F804681EA0300C00F4C
:100370000C46009021F0004123F00045B8EB02004C
:10038000A94105D24046214690461C460B460246EE
:1003900023F00040104347D0270DC7F30A00C3F3F2
:1003A0000A510290401A019040286BDAC3F31300FF
:1003B00040F4801B0098924620B10023D2EB030A40
:1003C00063EB0B0B01985946C0F14002504600F018
:1003D000C9F906460D4650465946019A00F0E1F922
:1003E00010EB08006141002487EA115284EAE773A8
:1003F0001A4340D0009A62B3019A012A4FEA075289
:1004000015DC001B61EB02014FF0004202EA0752CB
:10041000CDE90042001C41F5801132462B4600F028
:1004200018FA03B0BDE8F08F40462146F9E7001BFB
:1004300061EB0201001C41F5801300185B4120189C
:10044000A2F5001747EB030140EAD570B6196D41DC
:1004500011E06D084FEA360645EAC0754FEA0752CB
:10046000001B61EB0201001C41F5801149084FEAB5
:1004700030000019514132462B4603B0BDE8F04F21
:1004800000F0D8B90098012240000023D0EB02020E
:1004900063EBE073009821464FEAE074B8EB00008C
:1004A00061EB0401E9E783F000435BE781F0004181
:1004B00058E72DE9FE4F81EA030404F0004421F0DF
:1004C000004100944FF0000B23F0004350EA010478
:1004D0005ED052EA03045BD0C3F30A54C1F30A5559
:1004E0002C44A4F2F3340194A0FB0254C1F3130191
:1004F00041F48011C3F3130343F4801301FB02445E
:1005000000FB034E840A970A44EA815447EA835762
:10051000A4FB076802958D0A05FB07854FEA932C1B
:1005200004FB0C542705029D4FEA065847EA16378C
:10053000B5EB08056EEB070C870E920E47EA8117A4
:1005400042EA8312A7FB0201B6EB0B0164EB000445
:100550002B0D43EA0C335E1844EB1C50DA4651462F
:10056000E7FB0201C5F313044FEA0B3343EA1453CC
:100570004FEA0432019C43EA0603A4F10C040294FE
:10058000009CCDE900B400F064F903B0BDE8F08F41
:1005900000200146F9E72DE9F04D81EA030404F05B
:1005A000004B21F0004514464FF0000A23F00041B3
:1005B00050EA050220D054EA01021DD0C5F30A57C3
:1005C0000246C5F31303C1F31300C1F30A5640F406
:1005D000801543F48013A7EB0608101BD64608F2DB
:1005E000FD3873EB050002D308F1010801E0921811
:1005F0005B41B8F1000F03DA00200146BDE8F08D41
:1006000000204FF48011064684460EE0171B73EB62
:10061000050705D3121B63EB050306434CEA010CE7
:1006200049084FEA300092185B4150EA0107EDD1CA
:1006300052EA030012D082EA040083EA050108436B
:1006400005D0101BAB4106D20122002306E0002298
:100650004FF0004302E06FF0010253101AEB060066
:100660004CEB085110EB0A0041EB0B01BDE8F04DDB
:1006700000F0E0B8C10F80EAE0700844CA07962392
:10068000002100F0A9B896230022114600F0A4B87A
:100690000EB5C10F80EAE0700844CA07002140F29D
:1006A00033438DE80E000A460B4600F0D2F803B043
:1006B00000BD70B5C1F30A5201F000450024C1F33A
:1006C000130140F2FF3341F480119A4201DA002015
:1006D00070BD40F233439A42A2F2334203DC5242ED
:1006E00000F04FF800E090402C43F1D0404270BD44
:1006F00000F0004230F000400AD0C10D01F56071F9
:10070000C0F3160042EA0151C20840071143704786
:1007100000200146704701F0004330B421F0004151
:1007200050EA010206D00A0DA2F56072C1F313016E
:10073000002A02DC30BC00207047440F44EAC104A8
:10074000C100E01830BC00EBC25000F03CB8000023
:10075000002801DBC0F10040002901DBC1F10041AC
:1007600088427047202A04DB203A00FA02F1002078
:1007700070479140C2F1200320FA03F319439040DF
:100780007047202A04DB203A21FA02F0002170474A
:1007900021FA02F3D040C2F12002914008431946E9
:1007A0007047202A06DBCB17203A41FA02F043EAD1
:1007B000E07306E041FA02F3D040C2F1200291401A
:1007C0000843194670470029A8BF7047401C4900DC
:1007D00008BF20F00100704710B4B0FA80FC00FAA6
:1007E0000CF050EA010404BF10BC704749B1CCF1D1
:1007F000200421FA04F411FA0CF118BF012121435D
:100800000843A3EB0C01CB1D4FEA00614FEA102017
:1008100042BF002010BC704700EBC35010440029B9
:10082000A4BF10BC7047401C490008BF20F0010065
:1008300010BC704710B5141E73F1000408DA401C98
:1008400041F1000192185B411A4301D120F00100EF
:1008500010BD2DE9F04D92469B4611B1B1FA81F2DF
:1008600002E0B0FA80F220329046FFF77BFF0446A8
:100870000F4640EA0A0041EA0B0153465A46084334
:1008800013D0114653EA010019D0C8F14002504676
:10089000FFF777FF05460E46504659464246FFF79A
:1008A00061FF084305D0012004E020463946BDE839
:1008B000F08D0020054346EAE0762C4337430A9842
:1008C0006305E40AA0EB08000022FD0A44EA47544D
:1008D0000A3002D500200146E9E7010510196941F7
:1008E000DDE9084500196941BDE8F04DA2E770B5A2
:1008F00021F0004303430CD0C1F30A550024D5EB8B
:10090000040564EB0403D617AD1AB34102DB0020E3
:10091000014670BD201841EB025170BD2DE9F04D2C
:1009200000231A461B1A8A4103DB00200146BDE85A
:10093000F08DC1F30A52C1F3130141F480154FF059
:10094000000BD10702D100186D41521E002704464A
:1009500040F2FF11384601EB620A3E4680460246ED
:1009600000204FF48011FFF70CFFC2197141BB1832
:1009700046EB0100B4EB030C75EB000C04D3E41A56
:1009800065EB000517460E46241908F101006D417C
:1009900080463428E3DDF91946EB0600091BA8411F
:1009A00003D24FF0FF32134601E0002213461BEB47
:1009B000070046EB0A51BDE8F04DFFF73BBF0000D2
:1009C000064C074D06E0E06840F0010394E807009C
:1009D00098471034AC42F6D3FFF7AEFBC858000876
:1009E000E85800080EB540F2334102910021CDE9EC
:1009F00000110A460B46FFF72CFF03B000BD10B5EF
:100A000000F04AF800F0AAF900F094F810BD21B106
:100A1000826842F00102826003E0826822F00102F3
:100A20008260704721B1826842F48072826003E084
:100A3000826822F4807282607047000010B504461C
:100A40001248844208D10121401501F0B3FD002174
:100A5000601501F0AFFD17E00D48844208D1012177
:100A6000001501F0A7FD0021201501F0A3FD0BE00A
:100A70000848844208D10121C80301F09BFD0021F0
:100A80004FF4004001F096FD10BD0000002401402D
:100A900000280140003C014008B50121042001F07C
:100AA00079FD0220ADF8000000208DF803006946B2
:100AB000014800F0D1FC08BD0008014001460020BB
:100AC0008A6802F004020AB1012000E000207047A9
:100AD000014600208A6802F008020AB1012000E005
:100AE0000020704730B502460020002350680F4CAC
:100AF00020400D790C6844EA05242043506090683A
:100B00000B4C2040D1E902542C434D7944EA450472
:100B100020439060D06A20F470000C7C641EE4B224
:100B2000234340EA0350D06230BD0000FFFEF0FFD7
:100B3000FDF7F1FF00B585B00121480201F02AFD63
:100B40004FF4404001F0EAFC1D48FFF777FF00201A
:100B500000908DF8040001208DF805004FF460200E
:100B600002900020039001208DF81000694614487F
:100B7000FFF7B8FF052301221146114800F022F8C3
:100B800001210F48FFF74EFF01210D48FFF73FFFFE
:100B90000B4800F073F800BF0948FFF799FF0028E1
:100BA000FAD1074800F07AF800BF0548FFF786FF42
:100BB0000028FAD10121024800F065F805B000BD17
:100BC00000240140F0B504460D4600200021092D07
:100BD00011DDE068A5F10A0606EB4607072606FACE
:100BE00007F18843A5F10A0606EB460603FA06F16B
:100BF0000843E0600CE0206905EB4507072606FA8C
:100C000007F1884305EB450603FA06F10843206126
:100C1000072A0FDA606B561E06EB86071F2606FAB8
:100C200007F18843561E06EB860605FA06F10843CF
:100C3000606322E00D2A0FDA206BD61F06EB8607D1
:100C40001F2606FA07F18843D61F06EB860605FA2B
:100C500006F10843206310E0E06AA2F10D0606EBFE
:100C600086071F2606FA07F18843A2F10D0606EB58
:100C7000860605FA06F10843E062F0BD816841F09E
:100C800008018160704721B1826842F4A00282604D
:100C900003E0826822F4A00282607047816841F01C
:100CA00004018160704700002DE9F04700240A48E4
:100CB0000088FFF7E8FC8146FFF71AFD07464FF072
:100CC0006632064BFFF7F5FB0546FFF724FD0446A9
:100CD0002046BDE8F08700001800002066664A3F05
:100CE0000021002000BF05E0064A32F81020114420
:100CF000421CD0B21E28F7DB1E2291FBF2F2024BFF
:100D00001A807047AA0000201800002000BFFEE7EC
:100D100010B5022000F00EF920B1FFF7E1FF02202C
:100D200000F002F810BD000000F0805111B103493D
:100D3000086001E002494860704700000404024076
:100D40000000024021B1026842F00102026004E0AA
:100D500002684FF6FE731A400260704700B58DB00E
:100D60000121084601F0E6FB1C4800F03DF81C4854
:100D700002901C480390002004901E200590002043
:100D80000690802007904000089080000990202065
:100D90000A9000020B9000200C9002A90F4800F06E
:100DA000E8F801210D48FFF7CDFF012202210B4891
:100DB00000F0D6F84FF4A06001F076F90B208DF822
:100DC000040003208DF805008DF8060001208DF841
:100DD000070001A801F030F90DB000BD0800024085
:100DE0004C240140AA00002001684FF6FE72114019
:100DF00001600021016041608160C1604B4988420F
:100E000008D14A490839496841F00F01474A083A70
:100E100051608AE045491431884208D14349083974
:100E2000496841F0F001414A083A51607DE03F498C
:100E30002831884208D13D490839496841F4706138
:100E40003A4A083A516070E038493C31884208D14A
:100E500036490839496841F47041344A083A5160CA
:100E600063E032495031884208D130490839496835
:100E700041F470212D4A083A516056E02B49643103
:100E8000884208D129490839496841F47001274A44
:100E9000083A516049E025497831884208D1234910
:100EA0000839496841F07061204A083A51603CE0D5
:100EB0001F49884206D1011F096841F00F01021F36
:100EC000116032E01A491431884208D11849091FCB
:100ED000096841F0F001164A121F116025E014491B
:100EE0002831884208D11249091F096841F470610C
:100EF0000F4A121F116018E00D493C31884208D199
:100F00000B49091F096841F47041094A121F116019
:100F10000BE007495031884207D10549091F09688C
:100F200041F47021024A121F11607047080002400C
:100F30000804024001460020002201F0805313B152
:100F4000054B1A6801E0054B1A6802EA01030BB170
:100F5000012000E000207047000402400000024031
:100F60001AB103680B43036002E003688B4303601C
:100F7000704710B50022026847F6F0739A430C6A76
:100F80008B6823430C6923434C6923438C692343B7
:100F9000CC6923434C6A23438C6A23431A4302607F
:100FA000CB6843600B6883604B68C36010BD000072
:100FB00008B50121042001F0EDFA0C20ADF8000085
:100FC00010208DF8030003208DF8020069460848C0
:100FD00000F042FA1020ADF8000014208DF8030054
:100FE00003208DF802006946014800F035FA08BD7B
:100FF0000008014010B5FFF7DBFF0020064908603C
:10100000022000F0EFF800200449C1F88801022016
:1010100000F0E8F810BD00008C01214200002142E0
:1010200070B500250024002012490860032000F05C
:10103000D9F800BF19E00F4878380068012801D1BD
:1010400044F080046410032000F0CCF8012009492A
:101050000860032000F0C6F800200749C1F88801A5
:10106000032000F0BFF8681CC5B2072DE3DB204663
:1010700070BD0000880121420000214270B5044685
:10108000002500201B490860022000F0ABF800207A
:101090001949C1F88801022000F0A4F8012015497F
:1010A0000860022000F09EF8812141EA4401C8B2A4
:1010B00000F034F8FFF7B4FF054601200E49C1F8EF
:1010C0008801022000F08EF800200A490860022002
:1010D00000F088F800200849C1F89001032000F0D2
:1010E00081F801200349091D0860022000F07AF808
:1010F000284670BD8C0121420000214210B5002419
:1011000006E02046FFF7BAFF03490855601CC4B249
:10111000072CF6DB10BD00004000002070B506462D
:101120000024012500BF1EE006EA050018B10120D9
:101130001149086002E000200F490860022000F019
:1011400051F801200C4908390860022000F04AF8E3
:1011500000200A49C1F88801022000F043F868061F
:10116000050E601CC4B2082CDEDB012002490860B9
:10117000022000F037F870BD9001214200002142AA
:1011800070B504460D46002014490860022000F0A6
:1011900029F800201249C1F88801022000F022F845
:1011A00001200E490860022000F01CF8802141EA6D
:1011B0004401C8B2FFF7B2FF2846FFF7AFFF002097
:1011C0000749C1F88C01022000F00CF80020034907
:1011D000091F0860022000F005F870BD8C01214253
:1011E00000002142002106E03C2100BF0A00A1F1DD
:1011F000010399B2FAD10200A0F1010398B2F3D130
:101200007047704708B5FFF779FF3F48807900F0D5
:101210000F003D498979C1F3021101EB810100EB17
:1012200041003A4988713848007900F00F0036498A
:101230000979C1F3021101EB810100EB410033494F
:1012400008713148C07800F00F002F49C978C1F308
:10125000021101EB810100EB41002C49C8702A48C2
:10126000407900F00F0028494979C1F3021101EBE0
:10127000810100EB4100254948712348807800F046
:101280000F0021498978C1F3021101EB810100EBC4
:1012900041001E4988701C48407800F00F001A4930
:1012A0004978C1F3021101EB810100EB41001749BC
:1012B00048701548007800F00F0013490978C1F311
:1012C000021101EB810100EB410010490870084652
:1012D000827802231946102001F0D8F80A22022150
:1012E000302001F053F80948427802231946402083
:1012F00001F0CCF810200090044802780223042169
:10130000622001F017F808BD400000201000002006
:1013100010B54FF4004000F021F880B1C82003F070
:101320000DF84FF40041084800F021F938B907489A
:10133000007808B9012000E00020044908704FF44B
:10134000004000F005F810BD000801400600002034
:101350000149086070470000140401400146002064
:101360000022074B1B6803EA0102054B14331B687C
:101370000B4013B10AB1012000E0002070470000CB
:1013800000040140002123498279002A3AD00A460C
:10139000126803689A430B461A600A1D12680368B4
:1013A0009A430B1D1A60027911440A6803681A43B4
:1013B0000A60184A0832126803689A43154B0833CA
:1013C0001A601A1D126803689A43124B0C331A6094
:1013D0004279102A0ED11A1F126803681A430D4B66
:1013E00008331A601A1D126803681A43094B0C333C
:1013F0001A600DE00749427911440A6803681A43EC
:101400000A6005E0027911440A6803689A430A6099
:10141000704700000004014030B500228B071C0F0C
:101420000F2303FA04F20B4B8C1053F82430934330
:10143000084C8D1044F8253023468C1053F8243086
:101440008C07240F00FA04F42343024C8D1044F857
:10145000253030BD080001402DE9F041024600254D
:101460000026002000230024002791F803C00CF080
:101470000F0591F803C00CF0100CBCF1000F03D065
:1014800091F802C04CEA050591F800C0BCF1000FCC
:1014900031D0146800202BE04FF0010C0CFA00F35F
:1014A000B1F800C00CEA03069E4220D183004FF041
:1014B0000F0C0CFA03F7BC4305FA03FC4CEA0404D6
:1014C00091F803C0BCF1280F06D14FF0010C0CFAC3
:1014D00000FCC2F814C00AE091F803C0BCF1480F48
:1014E00005D14FF0010C0CFA00FCC2F810C0401CF2
:1014F0000828D1D31460B1F800C0BCF1FF0F34DD6F
:10150000546800202EE000F1080C4FF0010808FAA2
:101510000CF3B1F800C00CEA03069E4221D183000F
:101520004FF00F0C0CFA03F7BC4305FA03FC4CEA2E
:10153000040491F803C0BCF1280F05D100F1080C98
:1015400008FA0CF8C2F8148091F803C0BCF1480FF7
:1015500007D100F1080C4FF0010808FA0CF8C2F8A6
:101560001080401C0828CED35460BDE8F0810246AC
:10157000002093680B400BB1012000E00020704771
:10158000416170470161704700BFFEE700B599B047
:1015900000F07AFCFE48B0F900001090FFF76AF8FE
:1015A0004FF08B411190FEF79FFE1790F848B0F96D
:1015B00002001090FFF75EF84FF08B411190FEF79C
:1015C00093FE1690F248B0F904001090FFF752F81D
:1015D0004FF08B411190FEF787FE15901599084644
:1015E000FEF750FE0C9016990846FEF74BFE0A9047
:1015F00017990846FEF746FE09900A99FEF7EAFD9C
:101600000B900C99FEF7E6FD0D90FFF771F8CDE910
:101610000E0103F027F9CDE91001FFF77CF81890CF
:10162000DDE91701FEF760FE179018991698FEF78E
:101630005BFE169018991598FEF756FE15901598B2
:10164000FFF756F8CDE90E011698FFF751F8CDE9EE
:101650000C01DDE90E2302F05DFBCDE91001FFF77F
:101660005AF814901798FFF743F8CDE90E0102F0ED
:1016700009F981F00041CDE91001FFF74CF8139012
:10168000002012901298FFF733F80022C14BCDE9E9
:101690000401FEF70EFFCDE9060103F093F8CDE952
:1016A0000A011398FFF724F80022BA4BCDE9000194
:1016B000FEF7FFFECDE9020103F084F8CDE9060153
:1016C0001498FFF715F80022B24BCDE90001FEF7A0
:1016D000F0FECDE9020103F075F8CDE90401DDE982
:1016E0000623FEF7E6FECDE90801DDE90A23FEF751
:1016F000E0FECDE90E011298FEF7FAFF0022A54B9D
:10170000CDE90401FEF7D5FECDE9060102F0C2FBEA
:10171000CDE90A011398FEF7EBFF00229D4BCDE9BE
:101720000001FEF7C6FECDE9020102F0B3FBCDE9F0
:1017300006011498FEF7DCFF0022964BCDE900016C
:10174000FEF7B7FECDE9020102F0A4FBCDE90401EA
:10175000DDE90623FEF7ADFECDE90801DDE90A2348
:10176000FEF7A7FECDE90C01DDE90E23FEF7FAFD39
:10177000CDE91001FEF7CFFF874908601298FEF708
:10178000B7FF0022834BCDE90401FEF792FECDE9BD
:10179000060103F017F8CDE90A011398FEF7A8FF38
:1017A00000227C4BCDE90001FEF783FECDE902016A
:1017B00003F008F8CDE906011498FEF799FF00221E
:1017C000744BCDE90001FEF774FECDE9020102F091
:1017D00061FBCDE90401DDE90623FEF76AFECDE9F0
:1017E0000801DDE90A23FEF764FECDE90E01129837
:1017F000FEF77EFF0022674BCDE90401FEF759FE9C
:10180000CDE9060102F046FBCDE90A011398FEF787
:101810006FFF00225F4BCDE90001FEF74AFECDE9E4
:10182000020102F037FBCDE906011498FEF760FFD4
:101830000022584BCDE90001FEF73BFECDE9020145
:1018400002F0C0FFCDE90401DDE90623FEF731FE19
:10185000CDE90801DDE90A23FEF72BFECDE90C01F5
:10186000DDE90E23FEF71FFECDE91001FEF753FF61
:101870004A4908601298FEF73BFF0022454BCDE92C
:101880000401FEF716FECDE9060102F09BFFCDE94B
:101890000A011398FEF72CFF00223E4BCDE9000110
:1018A000FEF707FECDE9020102F0F4FACDE90601E8
:1018B0001498FEF71DFF0022364BCDE90001FEF71C
:1018C000F8FDCDE9020102F07DFFCDE90401DDE97B
:1018D0000623FEF7EEFDCDE90801DDE90A23FEF758
:1018E000E8FDCDE90E011298FEF702FF0022294B18
:1018F000CDE90401FEF7DDFDCDE9060102F0CAFAEB
:10190000CDE90A011398FEF7F3FE0022214BCDE941
:101910000001FEF7CEFDCDE9020102F053FFCDE953
:1019200006011498FEF7E4FE00221A4BCDE90001EF
:10193000FEF7BFFDCDE9020102F0ACFACDE90401EA
:10194000DDE90623FEF7B5FDCDE90801DDE90A234F
:10195000FEF7AFFDCDE90C01DDE90E23FEF702FD38
:10196000CDE91001FEF7D7FE0D4908601298FEF789
:10197000BFFE0022074BCDE90401FEF79AFDCDE939
:10198000060102F087FACDE90A0113980AE0000087
:10199000E80000200000E03F540000205800002034
:1019A0005C000020FEF7A4FE0022354BCDE90001CB
:1019B000FEF77FFDCDE9020102F004FFCDE906014B
:1019C0001498FEF795FE00222D4BCDE90001FEF79D
:1019D00070FDCDE9020102F0F5FECDE90401DDE97B
:1019E0000623FEF766FDCDE90801DDE90A23FEF7CF
:1019F00060FDCDE90E011298FEF77AFE0022204B21
:101A0000CDE90401FEF755FDCDE9060102F0DAFE4D
:101A1000CDE90A011398FEF76BFE0022184BCDE9C1
:101A20000001FEF746FDCDE9020102F033FACDE9EF
:101A300006011498FEF75CFE0022114BCDE900016F
:101A4000FEF737FDCDE9020102F024FACDE90401E9
:101A5000DDE90623FEF72DFDCDE90801DDE90A23C6
:101A6000FEF727FDCDE90C01DDE90E23FEF71BFD96
:101A7000CDE91001FEF74FFE0249086019B000BD24
:101A80000000E03F600000202DE9FF4F91B00546C7
:101A900016461C46DDE91E7841464046FEF7F2FB3D
:101AA000394606903846FEF7EDFB21460490204665
:101AB000FEF7E8FB03900499FEF78CFB059006996E
:101AC000FEF788FB0790FEF713FECDE9080102F050
:101AD000C9FECDE90A01FEF71EFE0F9020460F99C0
:101AE000FEF702FC044638460F99FEF7FDFB074659
:101AF00040460F99FEF7F8FB8046D9480168D9485F
:101B00000068FEF7BFFB0A90D7480168D748006815
:101B1000FEF7B8FB09900A99FEF7AEFB4FF0804143
:101B20000B90FEF7AFFB0E90CF480168CC480068E1
:101B3000FEF7A8FB0A90CD480168CA480068FEF786
:101B4000A1FB09900A99FEF745FB4FF080410B90ED
:101B5000FEF798FB0D90C44801680068FEF792FB01
:101B60000B90BF4801680068FEF78CFB0990BF48E6
:101B700001680068FEF786FB0790BA4801680068B4
:101B8000FEF780FB06900799FEF776FB089009990F
:101B9000FEF772FB0A900B99FEF71CFB0C90404677
:101BA0000D99FEF76FFB0B9038460C99FEF76AFB18
:101BB0000A900B99FEF760FB814620460C99FEF7D0
:101BC00061FB0B9040460E99FEF75CFB0A900B9967
:101BD000FEF752FB824638460E99FEF753FB0B90F8
:101BE00020460D99FEF74EFB0A900B99FEF744FB39
:101BF00083469F494846FEF745FB0B909D48016888
:101C00000B98FEF7E7FA9B49086099495046FEF7A2
:101C100039FB0B90984801680B98FEF7DBFA964960
:101C2000086093495846FEF72DFB0B9093480168D6
:101C30000B98FEF7CFFA9149086049469048FEF7A5
:101C400021FB29460A90FEF7C5FA0B9089480168E6
:101C50000B98FEF7BFFA054651468948FEF712FB7E
:101C60000A901299FEF7B6FA0B90834801680B9818
:101C7000FEF7B0FA129059468148FEF703FB314651
:101C80000A90FEF7A7FA0B907C4801680B98FEF7C4
:101C9000A1FA0646314674480068FEF7F3FA099047
:101CA0006F4812990068FEF7EDFA07906F480068D8
:101CB00080F0004029460590FEF7E4FA0690079967
:101CC000FEF7DAFA08900999FEF7D6FA6D490A90FC
:101CD000FEF7D8FA0B90634801680B98FEF77AFA82
:101CE00060490860604812990068FEF7CBFA3146F7
:101CF00009905B480068FEF7C5FA079059480168EB
:101D00002846FEF7BFFA06900799FEF763FA089097
:101D10000999FEF7B1FA5B490A90FEF7B3FA0B9006
:101D2000524801680B98FEF755FA504908604E4832
:101D300001682846FEF7A6FA314609904B4800682C
:101D4000FEF7A0FA0790474812990068FEF79AFA42
:101D500006900799FEF790FA08900999FEF73AFA6B
:101D600048490A90FEF78EFA0B903D4801680B989F
:101D7000FEF730FA3A490860084601682846FEF73F
:101D800081FA0990394812990068FEF77BFA3146CA
:101D9000079034480068FEF775FA06900799FEF739
:101DA00019FA08900999FEF767FA36490A90FEF782
:101DB00069FA0B902C4801680B98FEF70BFA2A4938
:101DC0000860084601680068FEF75CFA069024483F
:101DD00001680068FEF756FA04902448016800681C
:101DE000FEF750FA02901F4801680068FEF74AFAB1
:101DF00001900299FEF7EEF903900499FEF7EAF9D3
:101E000005900699FEF7E6F90790FEF771FCCDE91B
:101E1000080102F027FDCDE90A01FEF77CFC0F90D6
:101E200010480F990068FEF75FFA0E4908600F48E6
:101E30000F990068FEF758FA0C49086008480F9996
:101E40000068FEF751FA0649086007480F990068D4
:101E5000FEF74AFA0449086015B0BDE8F08F0000AB
:101E60005C0000205400002060000020580000208A
:101E7000A69B443B64000020680000206C0000200A
:101E8000000040406F12833B1FB5062202A93B2091
:101E900000F08CF89DF809009DF8081040EA012038
:101EA00000B2ADF800009DF80B009DF80A1040EA62
:101EB000012000B2ADF802009DF80D009DF80C1055
:101EC00040EA012000B2ADF80400BDF8000004496A
:101ED0000880BDF802004880BDF8040088801FBD5E
:101EE000E80000201FB5062202A9432000F05EF89A
:101EF0009DF809009DF8081040EA012000B2ADF8F5
:101F000000009DF80B009DF80A1040EA012000B285
:101F1000ADF802009DF80D009DF80C1040EA01207C
:101F200000B2ADF80400BDF8000005490881BDF815
:101F3000021003484181BDF8041081811FBD0000DB
:101F4000E800002008B500200090012269467520B5
:101F500000F02CF89DF80000682801D0002008BD92
:101F60000120FCE770B50024002500BF06E0002535
:101F700000E06D1CB5F57A7FFBDB641CB4F57A7F5D
:101F8000F5DB00216B2000F03CF80721192000F060
:101F900038F806211A2000F034F800211C2000F047
:101FA00030F818211B2000F02CF870BD2DE9F0410D
:101FB00007460C46154602F07BF9D02002F04EF998
:101FC00002F09EF9384602F049F902F099F902F060
:101FD0006FF9D12002F042F902F092F9002606E0F2
:101FE000012002F013F92070641C701CC6B2AE42CE
:101FF000F6DB002002F00AF9207002F071F9BDE86A
:10200000F08170B505460C4602F052F9D02002F07E
:1020100025F902F075F9284602F020F902F070F96E
:10202000204602F01BF902F06BF902F059F970BD7D
:1020300000BFFEE77047000070B5002100230F22AB
:10204000C47804B3154C246804F4E064C4F5E06477
:10205000210AC1F10403CA40447804FA03F18478E8
:102060001440214309010E4C0678A155047804F070
:102070001F050124AC4005786D11AD0005F1E02588
:10208000C5F8004109E0047804F01F050124AC40C4
:10209000044D0678761145F8264070BD0CED00E041
:1020A00000E400E080E100E002490143024A1160DF
:1020B000704700000000FA050CED00E070B5002448
:1020C000002500BF19E004F1B001C8B2002100F002
:1020D000EBFA0021084600F0E7FA0021102000F09A
:1020E000E3FA002505E00121002000F0DDFA681C7C
:1020F000C5B2802DF7DB601CC4B2082CE3DB70BDD9
:1021000070B504460D4605F1B001C8B2002100F0DB
:10211000CBFA102141EA1410002100F0C5FA04F0B6
:102120000F0141F00100002100F0BEFA70BD10B5B2
:1021300000218D2000F0B8FA0021102000F0B4FA40
:102140000021AE2000F0B0FA10BD10B500218D20A6
:1021500000F0AAFA0021142000F0A6FA0021AF2016
:1021600000F0A2FA10BD000008B50121082000F01F
:1021700011FA40F60740ADF8000010208DF803007A
:1021800003208DF8020069460448FFF765F940F620
:1021900007410248FFF7F6F908BD0000000C0140B6
:1021A00010B5FFF7E1FF02214548FFF7EBF9642086
:1021B00001F0BEFE02214248FFF7E2F9642001F07F
:1021C000B7FE02213E48FFF7DDF90021AE2000F006
:1021D0006BFA0021084600F067FA0021102000F099
:1021E00063FA0021402000F05FFA0021812000F016
:1021F0005BFA0021FF2000F057FA0021A12000F037
:1022000053FA0021C82000F04FFA0021A62000F068
:102210004BFA0021A82000F047FA00213F2000F0EF
:1022200043FA0021D32000F03FFA0021084600F0D5
:102230003BFA0021D52000F037FA0021802000F081
:1022400033FA0021D92000F02FFA0021F12000F00C
:102250002BFA0021DA2000F027FA0021122000F0EA
:1022600023FA0021DB2000F01FFA0021402000F0BB
:102270001BFA0021202000F017FA0021022000F0B4
:1022800013FA00218D2000F00FFA0021142000F035
:102290000BFA0021A42000F007FA0021A62000F08C
:1022A00003FA0021AF2000F0FFF90021AF2000F079
:1022B000FBF9FFF703FF00210846FFF721FF10BDE0
:1022C000000C01402DE9F04107460E4690460025DE
:1022D0000024A8F12000C5B27F2F02DD0027B01C2A
:1022E000C6B231463846FFF70BFF002408E004EB86
:1022F00005110F4A505C012100F0D6F9601CC4B2F0
:10230000082CF4DB701CC1B23846FFF7F9FE00243C
:1023100009E004EB05110831054A505C012100F089
:10232000C3F9601CC4B2082CF3DBBDE8F0810000E7
:10233000E84A00082DE9F05F0646894617461D4623
:10234000DDF828800024A24600BF1BE0281B401EA9
:10235000C1B20A2002F02AFAB7FBF0F00A21B0FB62
:10236000F1F201FB120AC34608EBDB71491001FBD5
:102370000461C8B20AF13001CAB24946FFF7A2FFB0
:10238000601CC4B2AC42E1DBBDE8F09F2DE9F04136
:1023900080460E461546002731464046FFF7B0FE00
:1023A00000240CE0A90001EB0111294A1144085D49
:1023B000012100F079F9781CC7B2601CC4B2102C5E
:1023C000F0DB701CC1B24046FFF79AFE00240DE01E
:1023D000A900491C01EB01111D4A1144085D0121AE
:1023E00000F062F9781CC7B2601CC4B2102CEFDB9D
:1023F000B01CC1B24046FFF783FE00240DE0A900E7
:10240000891C01EB0111124A1144085D012100F001
:102410004BF9781CC7B2601CC4B2102CEFDBF01C67
:10242000C1B24046FFF76CFE00240DE0A900C91CB4
:1024300001EB0111064A1144085D012100F034F955
:10244000781CC7B2601CC4B2102CEFDBBDE8F08171
:10245000D85000082DE9F04106460F4615460024E5
:1024600039463046FFF74CFE00BF09E005EB051189
:10247000054A1144085D012100F016F9601CC4B240
:10248000102CF3DBBDE8F081C45500082DE9F047BE
:102490000646884617461D460024A14600BF15E0A3
:1024A000281B401EC1B20A2002F080F9B7FBF0F0F1
:1024B0000A21B0FBF1F201FB120906EB0411C8B2CC
:1024C0004A464146FFF762FF601CC4B2AC42E7DBFC
:1024D000BDE8F0872DE9F05F044689464FF0000A19
:1024E000D346FEF7E1FB82465046FEF701F9074668
:1024F000074A084BFEF74FF80546FEF7DAF8834621
:102500000BF0FF0249462046FFF7A4FFBDE8F09F0D
:10251000B81E85EB51B8CE3F704700000146002041
:10252000034A506820F44040084350607047000060
:102530000010024029B1064A52690243044B5A6115
:1025400004E0034A52698243014B5A61704700001C
:102550000010024029B1064AD2690243044BDA61F5
:1025600004E0034AD2698243014BDA6170470000FC
:102570000010024029B1064A12690243044B1A6155
:1025800004E0034A12698243014B1A61704700005C
:102590000010024029B1064A92690243044B9A6135
:1025A00004E0034A92698243014B9A61704700003C
:1025B0000010024029B1064AD2680243044BDA6097
:1025C00004E0034AD2688243014BDA60704700009E
:1025D0000010024030B500210022002400232D4DC0
:1025E0006D6805F00C0121B1042905D0082923D11B
:1025F00005E0294D056022E0274D05601FE0254DCF
:102600006D6805F47012234D6D6805F48034022561
:1026100005EB92421CB9214D554305600BE01D4D61
:102620006D6805F400351DB11C4D5543056002E091
:10263000194D5543056002E0174D056000BF00BF0E
:10264000144D6D6805F0F0010909154D6B5C0568C6
:10265000DD4045600F4D6D6805F4E061090A104DDD
:102660006B5C4568DD4085600A4D6D6805F460511E
:10267000C90A0B4D6B5C4568DD40C560054D6D6852
:1026800005F44041890B074D6B5CC568B5FBF3F55C
:10269000056130BD0010024000127A0000093D00C3
:1026A000840000209400002070B504460D460026EA
:1026B00025B104211A48FEF765FF03E004211848FC
:1026C000FEF75EFF01211648FEF75AFF00261BE0C9
:1026D0004FF480611248FEF753FF04F0800028B1E8
:1026E0004FF400610E48FEF74DFF04E04FF4006127
:1026F0000B48FEF745FF4FF480610948FEF742FFA3
:102700006006040E701CC6B2082EE1DB04210448EA
:10271000FEF738FF01210248FEF734FF70BD0000CC
:10272000000C0140704710B500F002F810BD000029
:102730000CB50020019000903348006840F48030D0
:102740003149086000BF3048006800F40030009054
:102750000198401C0190009818B90198B0F5A06F3D
:10276000F1D12948006800F4003010B10120009038
:1027700001E0002000900098012843D12348006820
:1027800040F01000214908600846006820F003006E
:1027900008600846006840F0020008601A48406877
:1027A000194948600846406848600846406840F457
:1027B000806048600846406820F47C104860084605
:1027C000406840F4E81048600846006840F08070B7
:1027D000086000BF0C48006800F000700028F9D0C5
:1027E0000948406820F003000749486008464068EF
:1027F00040F00200486000BF0348406800F00C0051
:102800000828F9D10CBD0000001002400020024051
:1028100010B500F029FA10BD70B503461A480068DB
:102820001A4AB0FBF2F000FB03F1B1F1807F01D353
:1028300001201DE021F07F40401E4FF0E02250615A
:1028400050170F22002807DA1407260E104C00F04C
:102850000F052D1F665503E01407250E0D4C25545A
:1028600000BF00204FF0E02290610720106100209F
:1028700008B100BFFEE74FF0E020006920F0010042
:102880004FF0E021086170BD7000002040420F0051
:1028900018ED00E000E400E010B51348006840F0D7
:1028A00001001149086008464068104908400E4977
:1028B0004860084600680E4908400B490860084611
:1028C000006820F4802008600846406820F4FE007C
:1028D00048604FF41F008860FFF725FF4FF000604D
:1028E0000449086010BD0000001002400000FFF81D
:1028F000FFFFF6FE08ED00E03EB504460121084664
:10290000FFF728FE4FF0804000F04EF804EB440043
:10291000C0EBC4104FF6FF7101EAC000ADF804002F
:102920004720ADF800000020ADF8020069464FF0E6
:10293000804000F047F90121880700F022F80122C9
:102940001146900700F035F90121880700F01FF8C3
:102950003EBD10B501F0B0FD10BD08B54FF4A0604C
:10296000FFF7A2FB1C208DF8000002208DF801006B
:1029700001208DF802008DF803006846FFF75CFB2C
:1029800008BDCA4302827047CA430282704721B120
:10299000028842F00102028004E002884FF6FE73D2
:1029A0001A4002807047000010B50446684884420F
:1029B00008D10121C014FFF7FDFD0021E014FFF74D
:1029C000F9FDC4E0B4F1804F08D101210846FFF7BA
:1029D000D1FD00210120FFF7CDFDB8E05D48844224
:1029E00008D101210220FFF7C5FD00210220FFF7D9
:1029F000C1FDACE05848844208D101210420FFF712
:102A0000B9FD00210420FFF7B5FDA0E05348844242
:102A100008D101210820FFF7ADFD00210820FFF7B4
:102A2000A9FD94E04E48844208D101211020FFF70F
:102A3000A1FD00211020FFF79DFD88E04948844258
:102A400008D101212020FFF795FD00212020FFF76C
:102A500091FD7CE04448844208D101214014FFF7F5
:102A6000A9FD00216014FFF7A5FD70E03F488442F6
:102A700009D10121C804FFF79DFD00214FF400207A
:102A8000FFF798FD63E03A48844209D10121080527
:102A9000FFF790FD00214FF48010FFF78BFD56E00B
:102AA0003448844209D101214805FFF783FD002104
:102AB0004FF40010FFF77EFD49E02F48844208D113
:102AC00001214020FFF756FD00214020FFF752FD75
:102AD0003DE02A48844208D101218020FFF74AFDC9
:102AE00000218020FFF746FD31E02548844208D1CF
:102AF00001218015FFF73EFD0021A015FFF73AFDEB
:102B000025E02048844209D101210804FFF752FD45
:102B100000214FF48030FFF74DFD18E01A48844241
:102B200009D101214804FFF745FD00214FF4003091
:102B3000FFF740FD0BE01548844208D101218804CD
:102B4000FFF738FD00214FF48020FFF733FD10BD63
:102B5000002C01400004004000080040000C004030
:102B6000001000400014004000340140004C0140BF
:102B7000005001400054014000180040001C00407B
:102B80000020004000400140004401400048014056
:102B900030B50246002000230024158A05EA01030F
:102BA000958905EA010413B10CB1012000E0002071
:102BB00030BD1AB183890B43838102E083898B4343
:102BC00083817047002202881D4B98420ED01D4B16
:102BD00098420BD0B0F1804F08D01B4B984205D0E3
:102BE0001A4B984202D01A4B984204D14FF68F7379
:102BF0001A404B881A43174B984207D0164B9842FD
:102C000004D04FF6FF431A40CB881A4302808B88CA
:102C100083850B8803850A4B98420BD0094B984259
:102C200008D00E4B984205D00D4B984202D00D4B68
:102C3000984201D10B7A03860123838270470000FA
:102C4000002C014000340140000400400008004016
:102C5000000C004000100040001400400040014003
:102C600000440140004801400C48006828B10B486E
:102C70000068401E094908600FE00948007808B95B
:102C8000012000E00020064908704FF0E0200069B4
:102C900020F001004FF0E021086170470C00002097
:102CA0000800002001B50849009808604FF47A70C8
:102CB000FFF7B2FD4FF0E020006940F001004FF057
:102CC000E021086108BD00000C00002070B5002460
:102CD00000250821494800F025F930B1474800F0A7
:102CE000E9F90821454800F0ABF840F22771434864
:102CF00000F025F9D8B1424801780078401C404ADC
:102D000010704048405C3D49091D08803E480078ED
:102D10001146097888420AD1002240F227713748CB
:102D200000F037F90020384908703549087040F242
:102D30002551324800F003F900285DD040F22551BA
:102D40002E4800F086F82D4800F0B4F9C1B22F48A3
:102D500002780078401C2D4B18702D48815418467D
:102D60000078801E2A49085C0D2815D11846007885
:102D7000401E085C0A280FD1184602782548FDF746
:102D8000F3F900202349214A127888541F4908701A
:102D900021A000F0F9F92FE01C48007816282BD16B
:102DA0001A480078401E1A49085C542824D100248F
:102DB0000DE01749601C095C30391548005D01EBD6
:102DC000001017494855681CC5B2E01CC4B20F4832
:102DD0000078401EA042ECDC2A4611491148FDF75C
:102DE000C3F900200F4948550849087001200E49D1
:102DF00008700EA000F0C8F970BD00000038014056
:102E000052000020760100205100002053000020D5
:102E100076020020A0000020434D44204F4B2100AB
:102E200048000020400000205000002054696D65DB
:102E300020686176652061646A75737465642E002C
:102E400001F40072B2F5007F00D100BFCA430280D6
:102E5000704710B50022002340F66A14A14200D149
:102E600000BF0A1201249440A3B2DC43048010BDC9
:102E700021B1828942F40052828104E082894DF6B8
:102E8000FF731A408281704710B50446204884427F
:102E900009D101218803FFF78DFB00214FF4804009
:102EA000FFF788FB32E01B48844209D10121480426
:102EB000FFF760FB00214FF40030FFF75BFB25E0DC
:102EC0001548844209D101218804FFF753FB0021F2
:102ED0004FF48020FFF74EFB18E01048844209D1E0
:102EE0000121C804FFF746FB00214FF40020FFF743
:102EF00041FB0BE00A48844208D101210805FFF795
:102F000039FB00214FF48010FFF734FB10BD0000A7
:102F1000003801400044004000480040004C0040A0
:102F20000050004002460020B1F5007F00D100BFF4
:102F300013880B400BB1012000E00020704770B5F2
:102F40000246002400230025002040F66A16B14204
:102F500000D100BFC1F3421501F01F03012606FA9C
:102F600003F3012D02D19689334006E0022D02D1F0
:102F7000168A334001E0968A33400C12012606FA85
:102F800004F41688344013B10CB1012000E0002095
:102F900070BDF0B50346002400260025002040F651
:102FA0006A17B94200D100BF1846C1F3421401F0BC
:102FB0001F06012707FA06F5012C01D10C3004E0A9
:102FC000022C01D1103000E014301AB107682F43F1
:102FD000076002E00768AF430760F0BD2DE9F047E6
:102FE00086B005460E460024A24600BFA146002733
:102FF000B08900B100BF2F462C8A4CF6FF70044008
:10300000F08804432C82AC894EF6F3100440B0885B
:1030100031890843718908430443AC81AC8A4FF677
:10302000FF400440B0890443AC8201A8FFF7D2FA04
:103030001F48874202D1DDF810A001E0DDF80CA0A6
:10304000A88900F4004040B10AEBCA0000EB0A1066
:1030500031684900B0FBF1F807E00AEBCA0000EB69
:103060000A1031688900B0FBF1F86420B8FBF0F079
:1030700004012009642101FB1089A88900F40040A3
:1030800040B1322000EBC900B0FBF1F000F00700C6
:10309000044308E0322000EB09106421B0FBF1F09A
:1030A00000F00F0004432C8106B0BDE8F08700005B
:1030B0000038014001468888C0F308007047C1F31A
:1030C00008028280704700BFFEE7000010B586B09E
:1030D00004461B48FFF7D8FE02940020ADF80C0010
:1030E000ADF80E00ADF81000ADF814000C20ADF8EE
:1030F000120002A91248FFF771FF012240F2255188
:103100000F48FFF746FF01210D48FFF7B1FE4021B0
:103110000B48FFF795FE4FF4A060FEF7C5FF252092
:103120008DF8040001208DF8050002208DF80600BE
:1031300001208DF8070001A8FEF77EFF06B010BD44
:103140000038014008B5012144F20400FFF722FADB
:103150004FF40070ADF8000018208DF80300032034
:103160008DF8020069460748FEF776F94FF4806053
:10317000ADF8000004208DF8030069460148FEF711
:103180006BF908BD00080140014A024900F050BB3C
:10319000713F000898000020490050EAC12018BF84
:1031A00004204A0D18BF40F0010040F2FF72B2EB5C
:1031B000515F08BF40F00200012808BF052070479A
:1031C0002DE9F74F144694B00021C4E90211159976
:1031D000079121F00045C9498D4206DC1599C4E9E3
:1031E000000117B00020BDE8F08FC549DFF814A337
:1031F000A9423CDD0799C44E0029C44FC44A159921
:10320000534619DDFDF74FF9554506D0C14AC24B6B
:10321000FDF749F9C4E900010AE04FF0D352BE4B73
:10322000FDF741F932463B46FDF73DF9C4E900019F
:1032300017B00120BDE8F08FFDF794F8554506D092
:10324000B44AB54BFDF78EF8C4E900010AE04FF02F
:10325000D352B14BFDF786F832463B46FDF782F874
:10326000C4E9000117B04FF0FF30BDE8F08FAB4963
:10327000A942159978DB21F0004183468846A84A87
:10328000A84BFDF716F90022A74BFDF76BF8FDF7E9
:1032900010FA0990FDF7FCF906460F469C4A534682
:1032A000FDF707F943465A46FDF700F980468A467E
:1032B000984A994B30463946FDF7FBF82A0D01250F
:1032C0000B9242465346FDF7F1F8032DC4E9000185
:1032D00039D00B98C1F30A51401A05EB4511113949
:1032E000814230DA9148C346784400EB0510CDF8AE
:1032F0000CA00C90D0E9002330463946FDF7D9F8F0
:1033000002460B460491069058460399FDF7CBF808
:1033100080468A4602460B4658460399FDF7C3F895
:10332000049B069AFDF7BFF883460C980391394633
:10333000D0E902233046FDF7BCF85A46039BFDF75F
:10334000B2F86D1CBDE707980028A2BF099817B016
:10335000BDE8F08F616881F000416160099817B0A5
:103360004042BDE8F08FFFE784461598C1F3130192
:10337000C0F30A50A0F2F5304FEA601800F01F06C3
:10338000C6F12000139000200690079041F4801EA3
:1033900005206D4676B1664A08EB00017A4452F882
:1033A000213002EB8101B3404A68139922FA01F1FE
:1033B000194305E05F4908EB0002794451F82210F7
:1033C000A1FB0E27A1FB0C131A449A4234BF012320
:1033D000002303EB070A05EB8003D3E901B70F4491
:1033E0008F4234BF0121002193448B4411B1934596
:1033F00002D903E0934501D2012100E00021C3E995
:1034000001B7514445F82010011EA0F10100C1DCB4
:103410000298059F00F10050800F12900298DDE99C
:1034200003568000FDF734F9834628460D91FDF7D9
:10343000D9FA6FF01D02FDF75AFACDE90E013046B8
:10344000FDF7D0FA6FF03D02FDF751FA80468A464B
:103450003846FDF7C7FA6FF05D02FDF748FA0746F8
:10346000424653461191FCF77DFFDDE90E23FCF740
:1034700079FF5A460D9BFCF775FF00250E465A460C
:1034800028460D9BFDF70FF8DDE90E23FDF70BF83D
:1034900042465346FDF707F83A46119BFDF706F8FA
:1034A000DFF898A0244A5346FDF703F807468846FC
:1034B000234A244B31462846FCF7FBFF3A46434655
:1034C000FCF750FF074688464FF0A8425346314666
:1034D0002846FCF7EEFF3A464346FCF743FF159AB1
:1034E00012F0004F04D0129A81F000415242129221
:1034F000C4E90001129817B0BDE8F08FFB21E93F45
:103500007CD90240FB21F93F7370032E8A19A33B3B
:10351000000040543163621A61B4D03DFB2139414F
:1035200083C8C96D305FE43F0000E03FEC24000039
:10353000682400004A240000182D4454FB21F93D62
:103540003326A611460B113C2DE9FF4D21F0004812
:1035500007460C46B8F1795F08DAFDF7AAF80028AB
:1035600001BF0020324904B0BDE8F08D3A46234641
:1035700010461946FCF79DFF054602462D480E46AB
:103580000B460621784400F05DF82A463346FCF7E6
:1035900090FFDDE9022382468B4638462146FCF740
:1035A00088FF04460F4652465B4628463146FCF7E4
:1035B00080FF22463B46FCF776FF07468A464FF0DF
:1035C000FF3228463146FDF792F91B4A90450ADA48
:1035D0003A465346FCF767FF04B00022BDE8F04DC1
:1035E000134BFCF763BF154A4245A8BFA8F5001569
:1035F0004FF00004B8BF124D22462B46FCF753FF94
:103600000646884622462B4600200949FCF74BFF18
:1036100004460D463A46534630464146FCF743FFC2
:1036200004B022462B46BDE8F04DFCF73FBF00003A
:103630000000F03F182200003333D33F0000E93F81
:103640000000D23F2DE9F0414F1E00EBC7010446B8
:10365000D1E9000115461E4637F006020DD02A4674
:103660003346FCF726FF7F1E04EBC703D3E9002394
:10367000FCF778FE37F00602F1D1022F25D0042F97
:1036800013D0062F18BFBDE8F0812A463346FCF759
:1036900010FFD4E90A23FCF765FE2A463346FCF7FF
:1036A00008FFD4E90823FCF75DFE2A463346FCF701
:1036B00000FFD4E90623FCF755FE2A463346FCF703
:1036C000F8FED4E90423FCF74DFE2A463346FCF706
:1036D000F0FED4E90223FCF745FE2A463346FCF708
:1036E000E8FED4E90023BDE8F041FCF73BBE000052
:1036F0002DE9FF4D054621F0004084B00C46B0F1A5
:10370000795F0BDA2846FFF747FD042808BF00F071
:1037100071F8284608B02146BDE8F08D2A460B46D0
:103720001046FCF7C6FE06460F462A462346FCF71F
:10373000C0FE804626488A4632463B4605217844EC
:10374000FFF780FF83461098029160B3214A224B15
:1037500040465146FCF7ADFECDE900015A464046D1
:103760005146029BFCF7A5FE82468846DDE906012C
:103770004FF0FF32FDF7BBF852464346FCF793FE8D
:1037800032463B46FCF795FEDDE90623FCF78BFE4F
:10379000DDE90023FCF787FE08B02A462346BDE892
:1037A000F04DFCF783BE0B465A4630463946FCF7CF
:1037B00080FE084A084BFCF7D5FD42465346FCF70D
:1037C00078FE08B02A462346BDE8F04DFCF7CABD96
:1037D0005E210000495555555555C5BF0122FDF7DD
:1037E00086B8FCF7BFBD0022134610461146FCF711
:1037F000D2BE0000024A00201107FDF778B8000091
:1038000001FDFFFF02E008C8121F08C1002AFAD11B
:1038100070477047002001E001C1121F002AFBD150
:103820007047000001490860704700009C000020BC
:103830002DE9F04116460F460446002503E03946BF
:10384000B047641C6D1C20780028F8D12846BDE8DC
:10385000F081000010B500210720FDF791FC002445
:1038600006E00748015D2046FDF78AFC601CC4B2F3
:10387000072CF6DB80210720FDF782FC10BD00003D
:10388000400000202DE9F04D8D4F21F0004A86B018
:1038900005460C46BA452ADBAAEB070028430AD0A6
:1038A0008848824501DC1AD1CDB106B02846BDE872
:1038B000F04DFFF793BF844A844B2846FCF7F9FD8F
:1038C00007460E46824A834B28462146FCF7F1FD07
:1038D00006B03A463346BDE8F04DFCF743BD012043
:1038E000FFF7A0FF06B0BDE8F04DFFF77CBF7A48B8
:1038F000824542DABAF1795F0BDA2846FFF74CFCD1
:10390000042808BFFFF776FF284606B02146BDE829
:10391000F08D2A460B461046FCF7CBFD8346024647
:103920006E480E460B4606217844FFF78BFE5A463A
:103930003346FCF7BEFD804669488A465A46334600
:1039400004217844FFF77EFE5A463346FCF7B1FD6A
:1039500000223B46FCF706FD02460B464046514618
:10396000FCF719FE2A462346FCF7A3FD06B02A46BB
:103970002346BDE8F04DFCF7F5BC284624F0004195
:1039800000223D463B46FCF791FD4FF0FF32FCF72D
:10399000AEFF0646024653480F460B4606217844C2
:1039A000FFF750FE32463B46FCF783FDCDE90001B0
:1039B0004D4832463B4604217844FFF743FE3246E9
:1039C0003B46FCF776FD00222B46FCF7CBFC8346FA
:1039D00002913046394600F045FF804643480D4687
:1039E000504517DCDDE900015A46029BFCF7D3FD88
:1039F00042462B46FCF75DFD42462B46FCF7B2FCE7
:103A00000122FCF774FF304A304BFCF74CFD304A82
:103A1000304B4CE04FF0000A52460B464046FCF754
:103A2000A1FCCDE9031052462B4610461946FCF77F
:103A300040FD32463B46FCF739FDDDE90332FCF739
:103A4000AAFD06460F46DDE900015A46029BFCF737
:103A5000A2FD83460091012230463946FCF747FF1C
:103A6000194A1A4BFCF722FD06460F460122404632
:103A70002946FCF73CFF5A46009BFCF71AFD3246EC
:103A80003B46FCF710FD06460F46012250462946EC
:103A9000FCF72DFF0E4DDFF858802A464346FCF711
:103AA00005FD32463B46FCF701FD2A464346FCF73E
:103AB000FDFC002CD8BF81F0004106B0BDE8F08DC0
:103AC0000000F03F0000F07F075C143326A6913C15
:103AD000182D4454FB21F93F0000E03F8C1D0000ED
:103AE000A21D0000161D00002C1D00003333EF3F07
:103AF000FB21E93F2DE9F84F04460D4621F0004037
:103B000000917349814211DC7249884201DC06D17F
:103B10002CB120462946BDE8F84FFFF75FBE6E483E
:103B2000002DCCBF6D496E49BDE8F88F6D498142CB
:103B300011DD6D498142D8BF4FF0FF366DDD204663
:103B40002946FFF729FB042808BFFFF753FE20464C
:103B50002946BDE8F88F6549654F25F0004581424B
:103B600033DD6449814219DD002632464FF080433F
:103B700020462946FCF7F6FB80468A46012220466D
:103B80002946FCF7B4FE00223B46FCF78CFC42467B
:103B90005346FCF700FD04460D463EE00126002298
:103BA000BA463B4620462946FCF7DCFB80460F46DA
:103BB0000022534620462946FCF775FC42463B4608
:103BC000FCF7E9FC04460D4627E04B4981421BDD2A
:103BD000DFF828A102260022534620462946FCF79A
:103BE00068FC00223B46FCF7BDFB80460F460022E6
:103BF000534620462946FCF756FC42463B46FCF716
:103C0000CAFC04460D4608E0032622462B46002047
:103C10003B49FCF7C0FC04460D4622462B461046A5
:103C20001946FCF746FC8B46824602460B46FCF7DB
:103C300040FC07460246334888460B460621784436
:103C4000FFF700FD52465B46FCF733FC82462E48E8
:103C50008B463A46434605217844FFF7F3FC3A4643
:103C60004346FCF726FC02460B46002E50465946BA
:103C70000CDAFCF777FB22462B46FCF71AFC01B066
:103C800022462B46BDE8F04FFCF710BCFCF76AFB60
:103C900022462B46FCF70DFC1C4A7A4402EBC60375
:103CA000D3E90023FCF7FFFB22462B46FCF7FBFB86
:103CB000174A7A4402EBC603D3E90023FCF7F6FB6C
:103CC000009A002AB8BF81F00041BDE8F88F0000DB
:103CD000000010440000F07F182D4454FB21F93FF0
:103CE000FB21F9BF0000DC3F0000203E0000F33F55
:103CF0000000F03F0000E63F008003400000F83F76
:103D00000000F0BF2E1B0000EC1A00008A1A000011
:103D1000521A00002DE9F04D9446CCF1000423F036
:103D200000464CEA0404524F46EAD4749A46884648
:103D300021F00042BC4206D8454240EA050442EA6E
:103D4000D474BC4204D9BDE8F04D6246FFF749BDCA
:103D5000AAF14055A5F17F6555EA0C040BD0022469
:103D600004EAAA74434DDFF810E144EAD87452EA39
:103D7000000B04D00CE0BDE8F04DFFF7BBBE002CFB
:103D800014BF012CBDE8F08D022C30D0032C32D0B2
:103D900056EA0C0B0AD0BE4220D1BA4209D126F015
:103DA000804622F080423346114617E000291ADB94
:103DB00025E0DFF8C8B0FB44002C04BFDBE90001BC
:103DC000BDE8F08D012C02BFDBE9000181F000416C
:103DD000BDE8F08D022C0AD0032C0CD0BA4212D1CF
:103DE000B8F1000F0BDA23482549BDE8F08D2846CD
:103DF0002449BDE8F08D28467146BDE8F08D1D4888
:103E00002149BDE8F08D921B12153C2AC4BF194808
:103E10001D490EDCBAF1000FBEBF12F13C0F0020AD
:103E2000014606DB6246FCF7B6FB21F00041FFF7D6
:103E300061FE002C08BFBDE8F08D012C04BF81F0AD
:103E40000041BDE8F08D114A114B022C07D0FCF760
:103E50002AFB2A46BDE8F04D0A4BFCF724BBFCF7D1
:103E600022FB2A46BDE8F04D064BFCF71FBB0000C5
:103E70000000F07F182D4454FB2109C0161A0000E1
:103E8000FB21F9BFFB210940FB21F93F075C1433FB
:103E900026A6A13C00B5244B21F0004287B09A42EF
:103EA000DCBF0022134629DD204B9A4208D140B9DD
:103EB0004FF00100FFF7B6FCFFF795FC07B000BD1F
:103EC00003DBFFF78BFC07B000BD02AAFFF778F910
:103ED00010F0030104BF0DF1080C9CE80F000DD099
:103EE000012001290ED0022914D00DF1080C0090F8
:103EF0009CE80F00FFF7FCFB07B000BDFFF724FBB9
:103F000007B000BD0DF1080C00909CE80F00FFF712
:103F1000EFFB05E00DF1080C9CE80F00FFF714FB28
:103F200007B081F0004100BDFB21E93F0000F07FB8
:103F300001B50E49009808604FF47A70FEF76CFCEA
:103F40004FF0E020006940F001004FF0E0210861EF
:103F500000BF064800680028FBD14FF0E020006950
:103F600020F001004FF0E021086108BD0C000020A6
:103F700070B504460D4600BF80210548FEF7D2FF0C
:103F80000028F9D0A1B20248FFF799F8204670BD89
:103F9000003801402DE9F04F8BB06E480168006891
:103FA000FCF770F905906C4801680068FCF76AF945
:103FB00004906A4801680068FCF764F90290684858
:103FC00001680068FCF75EF901900299FCF754F96A
:103FD00003900499FCF750F983460599FCF7FAF829
:103FE0008246FCF785FBCDE908015A4801685A482A
:103FF0000068FCF747F90590584801685848006880
:10400000FCF740F904900599FCF7E4F883464FF07B
:104010008041FCF737F98246FCF76AFBCDE90601DF
:10402000DDE90823FFF776FE804600224D4BFCF7C2
:1040300040FA06464C4A4D4BFCF7ADFA0446FCF7F5
:104040006AFB4B4908604348016844480068FCF734
:1040500019F907904048016841480068FCF712F9D7
:1040600006900799FCF708F983464FF08041FCF76A
:1040700009F98246FCF73CFB8046FFF703FC00226F
:10408000384BCDE90801FCF714FA0646364A374B9F
:10409000FCF781FA0446FCF73EFB354948602D48A1
:1040A00001680068FCF7EEF803902B48016800688F
:1040B000FCF7E8F80290294801680068FCF7E2F88C
:1040C0008346274801680068FCF7DCF859460190F0
:1040D000FCF780F882460299FCF7CEF881460399F6
:1040E000FCF7CAF80446FCF703FBCDE906011948C2
:1040F000016819480068FCF7C5F88246174801684E
:1041000017480068FCF7BEF883465146FCF762F892
:1041100081464FF08041FCF7B5F80446FCF7E8FA19
:10412000CDE90401DDE90623FFF7F4FD00220D4B84
:10413000CDE90801FCF7BDF907460B4A0B4BFCF72C
:104140002AFA0546FCF7E7FA094988600BB0BDE892
:10415000F08F0000600000205C000020580000206C
:1041600054000020008066401F85EB51B81E0940B6
:104170003801002010B580200949086000F012F8CD
:1041800040200749091F086000F00CF8402004494E
:10419000086000F007F880200149091F086010BD81
:1041A000140C0140002001E0411CC8B20A28FBDBCE
:1041B0007047000008B501210820FEF7EBF9C02088
:1041C000ADF8000003208DF8020014208DF80300E4
:1041D00069460348FDF740F900F082F808BD000089
:1041E000000C014010B5802007490860FFF7DAFF96
:1041F000402005490860FFF7D5FF40200249091D0E
:104200000860FFF7CFFF10BD100C014070B50546E8
:104210000024002616E06006040E40200E490860C7
:10422000FFF7C0FF0C480838006800F0800008B1B4
:10423000601CC4B240200849091D0860FFF7B2FFA6
:10424000701CC6B2082EE6DB15B9FFF7CBFF01E004
:10425000FFF790FF204670BD100C014070B504467A
:10426000002520E004F0800018B180200F4908608C
:1042700003E080200D49091D0860FFF793FF4020EF
:104280000A490860FFF78EFF40200849091D0860B1
:10429000072D02D18020091F08606006040EFFF779
:1042A00081FF681CC5B2082DDCDB70BD100C01401D
:1042B00010B580200949086040200860FFF772FFB0
:1042C00080200649091D0860FFF76CFF4020034964
:1042D000091D0860FFF766FF10BD0000100C0140CB
:1042E00010B58020054908604020091F0860FFF7CD
:1042F00059FF80200149091F086010BD140C0140BE
:1043000010B580200C490860FFF74CFF40200A4997
:104310000860FFF747FF08480838006800F0800091
:1043200008B1012400E0002440200349091D086071
:10433000FFF738FF204610BD100C0140002107E0B8
:104340004FF47A7100BF0A00A1F1010399B2FAD1CA
:104350000200A0F1010398B2F2D170471FB501210C
:104360000520FEF717F94FF40040ADF80C000420CB
:104370008DF80F0003A91448FDF76EF80F210020F7
:10438000FDF74AF84FF40040009000208DF804003B
:104390000C208DF8050001208DF806006846FCF71A
:1043A000F1FF4FF4A060FDF77FFE28208DF8080094
:1043B00000208DF809008DF80A0001208DF80B000F
:1043C00002A8FDF739FE1FBD00080140FDF7E8FE19
:1043D000FFF7F0FEFCF70EFEFFF7C0FFFCF70FFB48
:1043E000FEF7B0FE4FF4E130FEF770FEFDF766FE1B
:1043F00000202B4908702B49087050212A48FBF7F0
:10440000CCFE2A480021016041608160FDF7AAFDD1
:1044100000BFFDF797FD0028FBD0FDF7B7F801209E
:1044200000F046FA3BE01E48007801282FD140F604
:10443000B830FEF737FCFDF788FE10E0184800782A
:10444000012806D1FCF7DEFE00216E20FEF742F8BF
:1044500005E00223302200212420FEF717F814483B
:1044600000780028EAD0FDF729FEFDF760FE10482D
:10447000007808B9012000E000200D4908700848C4
:10448000007808B9012000E00020054908700948BB
:10449000007820B1002007490870FFF7DBF9C2E778
:1044A0000600002000000020E80000203801002065
:1044B000080000205000002010B501218807FEF7F9
:1044C00067FB00285FD001218807FEF75DFA2E48C0
:1044D0000078401C2C4908702C480078401C2B495F
:1044E00008702B480088401C00B2294908802648E3
:1044F000007803280DD100202349087000F05CF8F3
:10450000244908682449FCF723F902D801202349EB
:1045100008701E4800780A281DD100201B49087029
:104520001FA12148FBF744FE40B101201B49087040
:104530001D4800210160416001810CE01BA11A4867
:10454000FBF736FE38B100201449087016480021E8
:104550000160416001810E48B0F90000642812DB5F
:1045600000200B4908800D48007801280BD109492B
:1045700008680949FCF7ECF805D8002007490870DD
:1045800001200C49087010BD01000020020000202D
:10459000040000203801002000001643060000201F
:1045A0004C45444F4E000000A00000204C45444FB5
:1045B000464600000000002070B588B000240025A9
:1045C0000020059006900790029003900490FDF75C
:1045D0005BFCFDF787FC6A4800886A496A4A1278E2
:1045E00021F81200664840886849674A127821F825
:1045F0001200634880886649634A127821F81200E5
:1046000000BF13E05F4931F9141005980844059084
:104610005E4931F914100698084406905C4931F956
:104620001410079808440790601CC4B2032CE9DBFF
:104630000598FCF71FF806465649FBF755FE50490A
:1046400008620698FCF716F806465249FBF74CFE3E
:104650004B4948620798FCF70DF806464D49FBF7B1
:1046600043FE4749886248480078401C4649087024
:1046700008460078032801D10020087040480089CE
:104680004549464A127821F812003D48408944497C
:10469000424A127821F812003948808941493F4A3C
:1046A000127821F81200002513E03B4931F915106A
:1046B0000298084402903A4931F9151003980844C9
:1046C0000390384931F91510049808440490681C87
:1046D000C5B2032DE9DB0321029890FBF1F63046C9
:1046E000FBF7C8FF264908630321039890FBF1F606
:1046F0003046FBF7BFFF224948630321049890FB33
:10470000F1F63046FBF7B6FF1D4988632348007871
:10471000401C2249087008460078032801D1002077
:1047200008701749B1F90800FBF7A4FF06461E49B7
:10473000FBF7A8FD12490864B1F90A00FBF79AFFDC
:1047400006461949FBF79EFD0D494864B1F90C0076
:10475000FBF790FF06461449FBF794FD084988646F
:104760000846806A496A064ECDE90010336AB26C89
:10477000716C306CFDF788F9FFF70CFC08B070BD68
:10478000E80000201C0000201A0000202200002069
:1047900028000020000040402E0000201B000020C8
:1047A000340000203A000020777D8B3A10B5024695
:1047B000012000E050430B00A1F10104E1B2F9D166
:1047C00010BD000000B5254B21F0004287B09A4291
:1047D00003DC0022134600922BE0214B9A4208D1C1
:1047E00040B94FF00100FFF71DF8FEF7FCFF07B0DE
:1047F00000BD03DBFEF7F2FF07B000BD02AAFEF723
:10480000DFFC10F003014FF001000DD0012914D09E
:1048100002291AD00DF1080C9CE80F00FEF794FE57
:1048200007B081F0004100BD0DF1080C00909CE83C
:104830000F00FEF75DFF07B000BD0DF1080C9CE80E
:104840000F00FEF781FE07B000BD0DF1080C0090CF
:104850009CE80F00FEF74CFFE2E70000FB21E93F78
:104860000000F07F2DE9F04106460F46FCF756F8B0
:1048700004000D4618BF0120284320F00040C0F17D
:104880007F6000F1E040C00F0ED0301C18BF012047
:10489000384320F00040C0F17F6000F1E040C00FDD
:1048A00004BF0120FEF7BEFF20462946BDE8F08187
:1048B00010B50446FEF751F82046FEF71DF810BD6E
:1048C0000000000000000000002F000000000700B2
:1048D000070000147F147F1400242A7F2A1200622C
:1048E00064081323003649552250000005030000D8
:1048F00000001C224100000041221C000014083E60
:1049000008140008083E0808000000A06000000825
:104910000808080800006060000000201008040279
:10492000003E5149453E0000427F40000042615137
:104930004946002141454B31001814127F100027D1
:1049400045454539003C4A49493000017109050394
:1049500000364949493600064949291E00003636C5
:104960000000000056360000000814224100001428
:104970001414141400004122140800020151090605
:1049800000324959513E007C1211127C007F494986
:104990004936003E41414122007F4141221C007FB7
:1049A00049494941007F09090901003E4149497AC5
:1049B000007F0808087F0000417F4100002040413F
:1049C0003F01007F08142241007F40404040007FAB
:1049D000020C027F007F0408107F003E4141413EEF
:1049E000007F09090906003E4151215E007F091937
:1049F00029460046494949310001017F0101003F34
:104A00004040403F001F2040201F003F4038403FB3
:104A10000063140814630007087008070061514917
:104A2000454300007F41410000552A552A550000AA
:104A300041417F0000040201020400404040404028
:104A4000000001020400002054545478007F4844C0
:104A5000443800384444442000384444487F0038F7
:104A60005454541800087E0901020018A4A4A47C20
:104A7000007F080404780000447D400000408084EA
:104A80007D00007F102844000000417F4000007C32
:104A900004180478007C080404780038444444383E
:104AA00000FC242424180018242418FC007C08048A
:104AB000040800485454542000043F444020003C63
:104AC0004040207C001C2040201C003C4030403CEA
:104AD000004428102844001CA0A0A07C004464547A
:104AE0004C441414141414140000000000000000BE
:104AF0000000000000000000000000F800000000BE
:104B0000000000333000000000100C06100C0600FE
:104B1000000000000000000040C07840C078400065
:104B2000043F04043F040400007088FC08300000C7
:104B3000001820FF211E0000F008F000E01800001F
:104B400000211C031E211E0000F0088870000000D8
:104B50001E2123241927211010160E00000000002A
:104B60000000000000000000000000E01804020047
:104B7000000000071820400000020418E0000000B8
:104B80000040201807000000404080F080404000B6
:104B90000202010F01020200000000F0000000000C
:104BA0000101011F010101000000000000000000E0
:104BB00080B0700000000000000000000000000055
:104BC00000010101010101010000000000000000DE
:104BD0000030300000000000000000008060180479
:104BE000006018060100000000E010080810E00056
:104BF000000F102020100F00001010F8000000001F
:104C00000020203F20200000007008080888700065
:104C100000302824222130000030088888483000E5
:104C20000018202020110E000000C02010F8000005
:104C300000070424243F240000F80888880808009E
:104C40000019212020110E0000E0108888180000B3
:104C5000000F112020110E0000380808C838080085
:104C60000000003F00000000007088080888700005
:104C7000001C222121221C0000E010080810E00086
:104C80000000312222110F00000000C0C00000000F
:104C90000000003030000000000000800000000034
:104CA000000080600000000000008040201008002C
:104CB00000010204081020004040404040404000F5
:104CC00004040404040404000008102040800000D0
:104CD0000020100804020100007048080808F000D5
:104CE0000000003036010000C030C828E810E000A5
:104CF0000718272423140B000000C038E000000030
:104D0000203C23020227382008F888888870000099
:104D1000203F202020110E00C0300808080838006D
:104D2000071820202010080008F808080810E000E4
:104D3000203F202020100F0008F88888E808100085
:104D4000203F20202320180008F88888E808100059
:104D5000203F200003000000C03008080838000091
:104D600007182020221E020008F808000008F80892
:104D7000203F210101213F20000808F80808000019
:104D80000020203F2020000000000808F80808004C
:104D9000C08080807F00000008F888C028180800C4
:104DA000203F20012638200008F8080000000000FD
:104DB000203F20202020300008F8F800F8F80800F4
:104DC000203F003F003F200008F830C00008F808EE
:104DD000203F200007183F00E01008080810E000FE
:104DE0000F10202020100F0008F808080808F00015
:104DF000203F210101010000E01008080810E00038
:104E00000F18242438504F0008F8888888887000CC
:104E1000203F2000030C302000708808080838006C
:104E20000038202121221C00180808F80808180062
:104E30000000203F2000000008F808000008F808E3
:104E4000001F202020201F000878880000C8380894
:104E5000000007380E010000F80800F80008F8000C
:104E6000033C0700073C03000818688080681808A6
:104E700020302C03032C30200838C800C838080024
:104E80000000203F2000000010080808C838080073
:104E90002038262120201800000000FE0202020017
:104EA0000000007F40404000000C30C000000000C7
:104EB000000000010638C00000020202FE000000EF
:104EC000004040407F000000000004020202040095
:104ED00000000000000000000000000000000000D2
:104EE00080808080808080800002020400000000BA
:104EF00000000000000000000000808080800000B2
:104F00000019242222223F2008F80080800000009F
:104F1000003F112020110E00000000808080000062
:104F2000000E112020201100000000808088F80071
:104F3000000E112020103F200000808080800000A3
:104F4000001F222222221300008080F08888881807
:104F50000020203F20200000000080808080800012
:104F6000006B94949493600008F8008080800000A7
:104F7000203F210000203F20008098980000000082
:104F80000020203F202000000000008098980000B2
:104F900000C08080807F000008F8000080808000D2
:104FA000203F24022D302000000808F800000000F7
:104FB0000020203F202000008080808080808000B2
:104FC000203F20003F20003F808000808080000044
:104FD000203F210000203F200000808080800000D2
:104FE000001F202020201F00808000808000000003
:104FF00080FFA12020110E00000000808080800032
:10500000000E112020A0FF80808080008080800022
:1050100020203F212000010000008080808080004F
:105020000033242424241900008080E080800000C4
:105030000000001F20200000808000000080800011
:10504000001F202020103F20808080000080808072
:1050500000010E3008060100808000800080808002
:105060000F300C030C300F00008080008080800027
:105070000020312E0E312000808080000080808052
:1050800080818E7018060100008080808080800002
:105090000021302C2221300000000000807C020220
:1050A00000000000003F404000000000FF00000042
:1050B00000000000FF0000000002027C80000000F1
:1050C0000040403F0000000000060101020204040D
:1050D00000000000000000000000000000000000D0
:1050E00000000000000000000000C0F8FE0E0303F6
:1050F0008383C3E76FFEF8C0000000073FFFEEC6E2
:1051000087838181C0E07F3F07000000000000002E
:105110000101010101010000000000000000000089
:105120000000000000000000000000000000000C73
:105130000C0E0607FFFFFF0000000000000000004B
:105140008080808080FFFFFF8080808000000000E2
:105150000001010101010101010101010100000043
:10516000000000000000000000000000000000003F
:105170000000000206070303030303CFFE7C0000C8
:105180000000000080C0E0F0B89C8E8783818080A2
:105190000000000000010101010101010101010104
:1051A00001000000000000000000000000000000FE
:1051B0000000000000000000030383838383C3FF1B
:1051C0007E3C00000000000080808081818181831E
:1051D000C3FF7E3C0000000000010101010101014C
:1051E00001000000000000000000000000000000BE
:1051F00000000000000000000000000080C0F03847
:105200001E0703FFFF0000000000001C1F1F1918ED
:1052100018181818FFFF18181800000000000000E8
:10522000000000000001010000000000000000007C
:10523000000000000000000000000000000000006E
:10524000FFFF838383838383030300000000000048
:105250000081818181818181C3FF7F1C000000006A
:105260000000010101010101010000000000000037
:10527000000000000000000000000000000000002E
:10528000000000E0F8BC8E86C3C3C38383830000A4
:10529000000000003FFFF1C18180808081C3FF7F5B
:1052A00000000000000000000101010101010000F8
:1052B00000000000000000000000000000000000EE
:1052C0000000000000000003030303030303C3F313
:1052D0007F1F070000000000000080E0F07C1F0737
:1052E00001000000000000000000000101010000BA
:1052F00000000000000000000000000000000000AE
:1053000000000000000000000000003C7EFFE3C33E
:105310008181C3C37F7E1C00000000007CFECE871D
:105320008381818387CEFE7C0000000000000001A5
:105330000101010101010100000000000000000066
:10534000000000000000000000000000000030FC31
:10535000FE870303010103079EFEF8000000000022
:10536000018183838382C3C3E37D3F0F000000007C
:105370000000010101010100000000000000000028
:10538000000000000000000000000000000000001D
:105390000000000000000070F0F07000000000004D
:1053A0000000000000000000C0E0E0C000000000BD
:1053B00000000000000000000001010101000000E9
:1053C00000000000060909E6F80C040202020202CD
:1053D000041E0000000000000000000000000000AB
:1053E00000000000000000071F3020404040404007
:1053F000201000000000000000000000000000007D
:105400000000000020102CE72424009090FF904919
:105410004A484000000000000000000000000000BA
:10542000000000000101017F2111404020130C14F5
:105430002241F80000000000000000000000000011
:105440000000000000FC0000FF0000F01010FF1042
:1054500010F000000000000000000000000000004C
:1054600000000000008740300F00001F0000FF0810
:10547000100F00000000000000000000000000000D
:1054800000000000000000FE92929292929292FE22
:10549000000000000000000000000000000000000C
:1054A0000000000040424458407F4040407F405050
:1054B000484640000000000000000000000000001E
:1054C0000000000040404242424242C24242424248
:1054D000424040000000000000000000000000000A
:1054E00000000000201008060040807F000000023D
:1054F0000408300000000000000000000000000070
:10550000000000000000FE1292B2D2929292D2B23B
:105510009E000000000000000000000000000000ED
:105520000000000040300F0484641F040404FF04E2
:105530000404000000000000000000000000000063
:1055400000000000100C048414640506F404040434
:1055500004140C0000000000000000000000000027
:1055600000000000048484444724140C070C142415
:10557000448404000000000000000000000000005F
:105580000000000002FA8282FE804020504C434C12
:10559000502040000000000000000000000000005B
:1055A0000000000008184884443F404458414E60C1
:1055B000584740000000000000000000000000000C
:1055C0000000000018FF81818181818181818181BA
:1055D000818181FF0018FF818181818181818181A9
:1055E000818181FFFF0018FF81818181818181811B
:1055F000818181FFFFFF0018FF818181818181818D
:10560000818181FFFFFFFF0018FF818181818181FE
:10561000818181FFFFFFFFFF0018FF818181818170
:10562000818181FFFFFFFFFFFF0018FF81818181E2
:10563000818181FFFFFFFFFFFFFF0018FF81818154
:10564000818181FFFFFFFFFFFFFFFF0018FF8181C6
:10565000818181FFFFFFFFFFFFFFFFFF0018FF8138
:10566000818181FFFFFFFFFFFFFFFFFFFF0018FFAA
:10567000818181FFFFFFFFFFFFFFFFFFFFFF00189A
:10568000FF8181FFFFFFFFFFFFFFFFFFFFFFFF0025
:1056900018FF81FFFFFFFFFFFFFFFFFFFFFFFFFF7F
:1056A0000018FFFFFFFFFFFFFFFFFFFFFFFFFFFFF0
:1056B000FF00000000000000555555555555C53FE9
:1056C0007D6FEB0312D6D4BF5544880E55C1C93F38
:1056D0003B8F68B52882A4BF88B20175E0EF493FCF
:1056E00009F7FD0DE13D023F4B2D8A1C273A03C00F
:1056F000C88A599CE52A004059018D1B6C06E6BFFB
:1057000082922EB1C5B8B33F4FBB610567ACDD3F98
:10571000182D4454FB21E93F9BF681D20B73EF3FD8
:10572000182D4454FB21F93FE2652F227F2B7A3C50
:10573000075C143326A6813CBDCBF07A8807703C09
:10574000075C143326A6913CC4EB98999999C9BF7C
:10575000711623FEC671BCBF6D9A74AFF2B0B3BFB1
:105760009AFDDE522DDEADBF2F6C6A2C44B4A2BF71
:105770000D5555555555D53FFF8300922449C23FDD
:105780006E204CC5CD45B73F513DD0A0660DB13F11
:10579000EB0D76244B7BA93F11DA22E33AAD903F23
:1057A0004C5555555555A53F7751C1166CC156BF3F
:1057B0009015CB19A001FA3EAD529C804F7E92BE4F
:1057C000C4B1B4BD9EEE213ED43888BEE9FAA8BD6E
:1057D000000000000000000000004054FB21F93FE1
:1057E0003163621A61B4D03D0000601A61B4D03DEB
:1057F0007370032E8A19A33B0000002E8A19A33B65
:10580000C14920259A837B39000000000000000078
:105810006E83F9A22915444ED15727FCC0DD34F51B
:10582000999562DB4190433CAB6351FE61C5BBDEA1
:105830003A6E24B7E0D24D42EA2E49061C92D109B5
:105840001CEB1DFE3EA729B1F53582E88444BB2E32
:1058500026709CE9417E5FB439D69139F43953837F
:105860008B5F849C3B28F9BDFF97F81F0F9805DEDE
:105870008B112FEF1F6D0A5ACF7E366DB709CB27DC
:10588000663F464F2DEA5F9EC7BA27757BF1E5EB71
:10589000F739073DEA92528AB15FFB6B085D8D1FB5
:1058A000A6F810111111813FD561C119A0012ABFBD
:1058B0007DFEB157E31DC73EEB9C2B8AE6E55ABE41
:1058C0007CD5CF5A3AD9E53DE858000800000020C1
:1058D000A00000000438000888590008A00000203B
:1058E0000806000014380008000000000000000056
:1058F00000000000000000000000000000000000A8
:105900000000000000000000000000000000000097
:105910000000000000000000000000000000000087
:105920000000000000000000000000000000000077
:105930000000000000000000000000000000803FA8
:105940000000000000000000000000000000000057
:10595000000000000000000000A24A040000000057
:10596000000000000102030406070809000000000F
:1059700001020304010203040607080902040608E1
:0859800000000000000000001F
:0400000508000131BD
:00000001FF
